:100000000C9472000C949A000C949A000C949A0030
:100010000C949A000C949A000C949A000C949A00F8
:100020000C949A000C949A000C949A000C949A00E8
:100030000C949A000C949A000C949A000C949A00D8
:100040000C9449080C949A000C9485030C945F035B
:100050000C949A000C949A000C949A000C949A00B8
:100060000C943D040C949A004661696C656420749C
:100070006F20726561642066726F6D204448542061
:1000800073656E736F72210000000000240027006A
:100090002A0000000000250028002B0000000008B6
:1000A000000201000003040700000000000000003F
:1000B00000000000230026002900040404040404B6
:1000C0000404020202020202030303030303010207
:1000D00004081020408001020408102001020408D6
:1000E0001020950A11241FBECFEFD8E0DEBFCDBF90
:1000F00011E0A0E0B1E0ECEEFAE102C005900D9253
:10010000AC36B107D9F722E0ACE6B1E001C01D92F0
:10011000A43BB207E1F710E0C2E7D0E004C02197AA
:10012000FE010E94690DC137D107C9F70E949308EB
:100130000C94740D0C940000CF92DF92EF92FF921A
:100140000F931F93CF93DF936C017A018B01C0E073
:10015000D0E0CE15DF0581F0D8016D918D01D6017B
:10016000ED91FC910190F081E02DC6010995892B5C
:1001700011F02196EECF7E01C701DF91CF911F9143
:100180000F91FF90EF90DF90CF900895FC01538D79
:10019000448D252F30E0842F90E0821B930B541761
:1001A00010F0CF96089501970895FC01918D828DEE
:1001B000981761F0828DDF01A80FB11D5D968C91BB
:1001C000928D9F5F9F73928F90E008958FEF9FEFC6
:1001D0000895FC01918D828D981731F0828DE80F82
:1001E000F11D858D90E008958FEF9FEF0895FC013C
:1001F000918D228D892F90E0805C9F4F821B910909
:100200008F73992708958BED91E00E94F70021E00C
:10021000892B09F420E0822F0895FC01848DDF01F1
:10022000A80FB11DA35ABF4F2C91848D90E0019669
:100230008F739927848FA689B7892C93A089B18958
:100240008C91837080648C93938D848D981306C0F9
:100250000288F389E02D80818F7D80830895EF925D
:10026000FF920F931F93CF93DF93EC0181E0888F70
:100270009B8D8C8D981305C0E889F989808185FD57
:1002800026C0F62E0B8D10E00F5F1F4F0F73112746
:10029000E02E8C8DE8120CC00FB607FCFACFE8896F
:1002A000F989808185FFF5CFCE010E940D01F1CF44
:1002B0008B8DFE01E80FF11DE35AFF4FF0829FB7CF
:1002C000F8940B8FEA89FB89808180620AC09FB70E
:1002D000F894EE89FF896083E889F98980818370C9
:1002E000806480839FBF81E090E0DF91CF911F9178
:1002F0000F91FF90EF900895CF93DF93EC01888DDD
:100300008823C9F0EA89FB89808185FD05C0A88919
:10031000B9898C9186FD0FC00FB607FCF5CF80819F
:1003200085FFF2CFA889B9898C9185FFEDCFCE01E9
:100330000E940D01E7CFDF91CF91089580E090E01A
:10034000892B29F00E94030181110C94000008956B
:1003500085ED8093BC008091BC0084FDFCCF1092A1
:10036000B101089540918D01262F30E0240F311DF9
:1003700021323105DCF42091B1012430C9F4FC01B3
:1003800080E090E0861758F430918D012191DC01D6
:10039000A359BE4FA30FB11D2C930196F3CF8091AB
:1003A0008D01680F60938D0180E0089581E00895CC
:1003B00082E0089508958FEF9FEF08958FEF9FEFEC
:1003C000089580916C0190E091958195910908952F
:1003D000CF93DF93CB01EA01642F0E94B201CE01DB
:1003E000DF91CF910895CF93DF931F92CDB7DEB702
:1003F000698361E0CE0101960E94B20181E090E044
:100400000F90DF91CF910895089580E090E00895D6
:100410000E946F0D6115710579F0FB0101900020BC
:10042000E9F73197AF01461B570BDC01ED91FC91C9
:100430000280F381E02D099480E090E008952F92EE
:100440003F924F925F926F927F928F929F92AF9264
:10045000BF92CF92DF92EF92FF920F931F93CF93B1
:10046000DF93CDB7DEB7A2970FB6F894DEBF0FBE0D
:10047000CDBF8C014A015B01D22E9A01AB01C501AF
:10048000B4010E94420D882319F060E371E027C097
:1004900024013501E89477F82FEF3FEF4FE75FE74E
:1004A000C301B2010E94420D81110DC02FEF3FEF39
:1004B0004FE75FE7C301B2010E94780B18161CF4E6
:1004C00064E371E00CC02FEF3FEF4FE75FE4C5013D
:1004D000B4010E94D00C181634F468E371E0C8012E
:1004E0000E940A02BDC02FEF3FEF4FE75FECC5014E
:1004F000B4010E94780B87FDF0CF20E030E0A90125
:10050000C501B4010E94780B87FF0FC0D801ED919F
:10051000FC910190F081E02D6DE2C80109951C016C
:10052000B7FAB094B7F8B09402C0212C312CF12C5A
:1005300060E070E080E09FE3DF1441F020E030E015
:1005400040E251E40E947D0BF394F6CFA5019401A3
:100550000E940C0B4B015C010E94EF0B562E672E84
:10056000782EC92E19A2262F372F482F592F7E01FA
:10057000B1E2EB0EF11CEAA24F2CCA01B9012AE04C
:1005800030E040E050E00E94470D605DF70162936B
:100590007F01211531054105510579F7BF01C801DA
:1005A0000E940A027101E80EF91EDD2009F457C00D
:1005B000652D762D872D9C2D0E941E0C9B01AC0174
:1005C000C501B4010E940B0B4B015C01D801ED91F8
:1005D000FC910190F081E02D6EE2C8010995E80ED2
:1005E000F91E20E030E040E251E4C501B4010E9470
:1005F000D50C4B015C010E94EF0B9B0140E050E0E9
:1006000019A22AA0342C562E632E742EC52ECA0190
:10061000B9012AE030E040E050E00E94470D605D03
:10062000F10162931F01211531054105510579F74B
:10063000BF01C8010E940A02E80EF91E652D762D41
:10064000872D9C2D0E941E0C9B01AC01C501B4019D
:100650000E940B0B4B015C01DA94D110C2CFC70191
:10066000A2960FB6F894DEBF0FBECDBFDF91CF913B
:100670001F910F91FF90EF90DF90CF90BF90AF90C0
:100680009F908F907F906F905F904F903F902F90B2
:100690000895CF93DF93EC0160E08E810E94D20534
:1006A00061E08E810E94D20560E08E810E94D205B9
:1006B0008BE891E00197F1F7DF91CF9108951F92B8
:1006C0000F920FB60F9211242F933F934F935F9386
:1006D0006F937F938F939F93AF93BF93EF93FF930A
:1006E0008BED91E00E940D01FF91EF91BF91AF91D1
:1006F0009F918F917F916F915F914F913F912F913A
:100700000F900FBE0F901F9018951F920F920FB66B
:100710000F9211242F938F939F93EF93FF93E09168
:10072000EB01F091EC018081E091F101F091F20197
:1007300082FD12C090818091F4018F5F8F732091B0
:10074000F501821751F0E091F401F0E0E552FE4F1F
:10075000958F8093F40101C08081FF91EF919F916B
:100760008F912F910F900FBE0F901F901895CF92E1
:10077000DF92EF92FF920F931F93CF93DF936C0161
:100780007C0187E0E80EF11CC0E0D0E0062F10E00D
:10079000B8010C2E02C0759567950A94E2F7617056
:1007A000F70181917F010E94D2052196C430D105C5
:1007B00079F7C601DF91CF911F910F91FF90EF90D4
:1007C000DF90CF900C944903CF92DF92EF92FF928B
:1007D0000F931F93CF93DF93EC01F62E642F8C8140
:1007E0000E94D2058D818F3F19F060E00E94D205F2
:1007F0008F850F2D10E084FF25C06E0187E0C80EA5
:10080000D11CE12CF12CB8010E2C02C07595679516
:100810000A94E2F76170F60181916F010E94D2059E
:10082000FFEFEF1AFF0A88E0E816F10461F7CE0146
:10083000DF91CF911F910F91FF90EF90DF90CF90BC
:100840000C944903B80184E0759567958A95E1F7A2
:10085000CE010E94B7036F2DCE01DF91CF911F9182
:100860000F91FF90EF90DF90CF900C94B70341E091
:100870000E94E40381E090E008951F920F920FB66A
:100880000F9211242F933F934F935F936F937F9316
:100890008F939F93AF93BF93EF93FF938091B90092
:1008A000887F803609F49CC068F5883209F45BC003
:1008B00090F4803109F454C038F4882309F4F2C06C
:1008C000883009F44DC0F2C0883109F44CC0803240
:1008D00009F45DC0EBC0803409F468C048F480338B
:1008E00009F455C0883309F0E1C08093B001D4C049
:1008F000803509F44FC0883509F45DC0883409F0AB
:10090000D5C0D2C0883909F4C3C0A8F4883709F427
:1009100067C038F4883609F463C0803709F460C0D2
:10092000C5C0883809F4B4C0803909F45FC0803884
:1009300009F0BCC05BC0803B09F484C038F4803A45
:1009400009F466C0883A09F47DC0B0C0803C09F45F
:10095000A3C0883C09F4A0C0883B09F486C0A6C0A7
:100960008091D60110C09091D5018091D401981743
:1009700070F5E091D50181E08E0F8093D501F0E014
:10098000EC54FE4F80818093BB0085EC82C0809345
:10099000B0018AC0E091D50181E08E0F8093D5012E
:1009A0008091BB00F0E0EC54FE4F80839091D50124
:1009B0008091D4016AC0E091D50181E08E0F8093CF
:1009C000D5018091BB00F0E0EC54FE4F8083809114
:1009D000B301811169C081E08093B20184EA5DC0F6
:1009E00083E08093B1011092AF01CFCF8091AF012E
:1009F000803208F04DC0E091AF0181E08E0F80930E
:100A0000AF018091BB00F0E0E157FE4F8083BDCF86
:100A100085EC8093BC001092B1018091AF018032CF
:100A200030F4E091AF01F0E0E157FE4F10826091A9
:100A3000AF0170E08FE891E0E0E0F0E009951092FE
:100A4000AF0134C084E08093B10110928E01109206
:100A50008D01E0E0F0E0099580918D01811105C0E4
:100A600081E080938D0110926D01E0918E0181E013
:100A70008E0F80938E01F0E0E359FE4F80818093CA
:100A8000BB0090918E0180918D01981708F47DCF65
:100A900085E88093BC000AC085EC8093BC0010926E
:100AA000B10104C01092B0010E94A801FF91EF9122
:100AB000BF91AF919F918F917F916F915F914F9176
:100AC0003F912F910F900FBE0F901F901895CF92CE
:100AD000DF92EF92FF92CF93DF93B091970288233A
:100AE00011F0AB2F01C0A0E08091980290E0880F38
:100AF000991F80559F4FC0909D02D0909E02E0901C
:100B00009F02F090A00220E030E0FC01C591D4915A
:100B1000E881EB23A90160E070E0EA130CC02F5FCD
:100B20003F4F4C155D056E057F0578F33FEF2FEFC6
:100B30008FEF9FEF03C0322F252FCB01632F722F32
:100B4000DF91CF91FF90EF90DF90CF9008953FB766
:100B5000F8948091A4029091A502A091A602B09170
:100B6000A70226B5A89B05C02F3F19F00196A11D2D
:100B7000B11D3FBFBA2FA92F982F8827820F911D33
:100B8000A11DB11DBC01CD0142E0660F771F881F7A
:100B9000991F4A95D1F7089540E0682F88E792E0C1
:100BA0000C94E40390E0FC01E456FF4F2491FC0117
:100BB000E253FF4F3491FC01E654FF4FE491EE23E2
:100BC00009F43CC0222339F1233091F038F421306C
:100BD000A9F0223001F584B58F7D12C0273091F045
:100BE0002830A1F02430B9F4809180008F7D03C0BB
:100BF000809180008F77809380000DC084B58F77BF
:100C000084BD09C08091B0008F7703C08091B0008F
:100C10008F7D8093B000F0E0EE0FFF1FEE56FF4F88
:100C2000A591B4919FB7F894611104C08C9130954F
:100C3000382302C0EC913E2B3C939FBF0895CF9385
:100C4000DF9390E0FC01E253FF4F2491FC01E65456
:100C5000FF4F8491882361F190E0880F991FFC0178
:100C6000E857FF4FC591D491FC01EE56FF4FA59177
:100C7000B491611109C09FB7F894888120958223AF
:100C80008883EC912E230BC0623061F49FB7F894F7
:100C90008881322F309583238883EC912E2B2C93DF
:100CA0009FBF06C08FB7F894E8812E2B28838FBF93
:100CB000DF91CF910895CF93DF93823028F0909108
:100CC000870298609093870280938B0210928C0227
:100CD00080E480938D0280E180938E0280E5809392
:100CE0008F0261E080917C020E941F0680917D024C
:100CF0008F3F19F061E00E941F0661E080917E0243
:100D00000E941F06C8E7D2E09E012857324080911A
:100D1000870284FD03C084E090E002C088E090E098
:100D20002196281739072CF461E08E810E941F0656
:100D3000EBCF8BE39DE00197F1F760E080917C02BF
:100D40000E94D20560E080917E020E94D2058091CF
:100D50007D028F3F19F060E00E94D20580918702EA
:100D600084FD20C063E088E792E00E94B703CBE4F3
:100D7000D6E4CE010197F1F763E088E792E00E94A4
:100D8000B7032197F1F763E088E792E00E94B70389
:100D900083E592E00197F1F762E088E792E00E9434
:100DA000B70315C080620E94CC058BE496E40197DE
:100DB000F1F78091870280620E94CC0583E592E082
:100DC0000197F1F78091870280620E94CC058091A3
:100DD000870280620E94CC0584E0809388028CE0C8
:100DE0000E94CC0581E00E94CC058BE39FE1019736
:100DF000F1F782E08093890286E0DF91CF910C9435
:100E0000CC058F929F92AF92BF92CF92DF92EF92DA
:100E1000FF926B017C010E94A7054B015C01C1148C
:100E2000D104E104F104F1F00E94A705DC01CB013B
:100E300088199909AA09BB09883E9340A105B10503
:100E400070F321E0C21AD108E108F10888EE880E9B
:100E500083E0981EA11CB11CC114D104E104F1046B
:100E600019F7DDCFFF90EF90DF90CF90BF90AF905C
:100E70009F908F900895CF92DF92EF92FF920F9301
:100E80001F93CF93DF93CDB7DEB7C054D1400FB6D9
:100E9000F894DEBF0FBECDBF2FB7F8948091D70175
:100EA0009091D801A091D901B091DA012FBF409162
:100EB000990250919A0260919B0270919C028C0160
:100EC0009D01041B150B260B370BB901A801403DF2
:100ED00057406105710518F48091A102CAC0809342
:100EE000990290939A02A0939B02B0939C02109255
:100EF0009402109293021092920210929102109218
:100F0000900262E0809195020E941F0661E070E00D
:100F100080E090E00E94010761E0809195020E94CC
:100F20001F0660E0809195020E94D2058091960292
:100F30008551823028F48BE291E10197F1F706C0E8
:100F400064E170E080E090E00E94010762E080913F
:100F500095020E941F068091A20290E082309105C6
:100F600038F0880F991F880F991F05970197F1F79F
:100F7000F89480E00E9467056F3F7F4F8F4F9F4F2F
:100F800021F41092A102789441C081E00E9467058B
:100F90006F3F7F4F8F4F9F4FA1F38E010F5F1F4F0A
:100FA0006E018FEBC81A8EEFD80A780180E00E949C
:100FB0006705F701608371838283938381E00E94D8
:100FC0006705F7016483758386839783F8E0EF0EE6
:100FD000F11CEC14FD0451F7789420E030E0F801A6
:100FE000C080D180E280F380448155816681778121
:100FF000FFEFCF16DF06EF06FF0631F04F3F8FEF12
:1010000058076807780721F41092A10280E031C0E8
:10101000F90183E0F595E7958A95E1F7E057FD4FF3
:101020008081880FC416D506E606F70608F48160AD
:1010300080832F5F3F4F085F1F4F2832310579F6BD
:101040002091940230E0409190028091910290E0D2
:10105000840F911D40919202840F911D4091930243
:10106000840F911D99272817390771F681E0809325
:10107000A102C05CDE4F0FB6F894DEBF0FBECDBF3D
:10108000DF91CF911F910F91FF90EF90DF90CF9064
:1010900008951F920F920FB60F9211242F933F9332
:1010A0008F939F93AF93BF938091D7019091D80175
:1010B000A091D901B091DA013091A30223E0230F6E
:1010C0002D3720F40196A11DB11D05C026E8230F80
:1010D0000296A11DB11D2093A3028093D701909386
:1010E000D801A093D901B093DA018091A402909124
:1010F000A502A091A602B091A7020196A11DB11D63
:101100008093A4029093A502A093A602B093A70295
:10111000BF91AF919F918F913F912F910F900FBEF3
:101120000F901F901895789484B5826084BD84B523
:10113000816084BD85B5826085BD85B5816085BDD2
:1011400080916E00816080936E001092810080918A
:101150008100826080938100809181008160809312
:101160008100809180008160809380008091B10037
:1011700084608093B1008091B00081608093B00062
:1011800080917A00846080937A0080917A008260F6
:1011900080937A0080917A00816080937A008091B8
:1011A0007A00806880937A001092C100E091EB0190
:1011B000F091EC0182E08083E091E701F091E80199
:1011C0001082E091E901F091EA018FEC80831092A6
:1011D000F301E091EF01F091F00186E08083E0916E
:1011E000ED01F091EE01808180618083E091ED015D
:1011F000F091EE01808188608083E091ED01F091B3
:10120000EE01808180688083E091ED01F091EE0134
:1012100080818F7D808362E0809195020E941F060D
:101220002FB7F8948091D7019091D801A091D9015E
:10123000B091DA012FBF805D9740A109B109809379
:10124000990290939A02A0939B02B0939C0287E329
:101250008093A20282E00E945B06CBE3DFE10E9462
:101260003B078823D1F1809196028B30B0F18D300D
:10127000A8F08551823088F56091900270919102BA
:1012800076276727762780E090E00E941E0C2DECE1
:101290003CEC4CEC5DE30E94D50C1CC060919102CB
:1012A00070E080E090E00E94200C2DEC3CEC4CECD7
:1012B0005DE30E94D50C6B017C016091900270E0AF
:1012C00080E090E00E94200C9B01AC01C701B601B8
:1012D0000E940C0B4B015C0106C0812C912C20EC70
:1012E000A22E2FE7B22E0E943B07811103C008E611
:1012F00010E093C0809196028C3009F448C018F435
:101300008B30D1F06BC08551823008F067C01091EE
:101310009202612F6F7770E0762F6627809193029B
:10132000682B80E090E00E941E0C2DEC3CEC4CEC15
:101330005DE30E94D50C49C06091920270E080E0AC
:1013400090E00E941E0C6B017C011091930217FF2C
:101350000AC09B01AC0160E070E080E89FEB0E9456
:101360000B0B6B017C01612F6F7070E080E090E0EF
:101370000E94200C2DEC3CEC4CEC5DE30E94D50C63
:10138000A70196010E940C0B6B017C012DC01091EE
:101390009202609193026F7070E080E090E00E9492
:1013A000200C2DEC3CEC4CEC5DE30E94D50C6B0169
:1013B0007C01612F70E080E090E00E941E0C9B0198
:1013C000AC01C701B6010E940C0B6B017C0117FF39
:1013D0000BC0F7FAF094F7F8F09406C0C12CD12CAA
:1013E00080ECE82E8FE7F82EA5019401C501B40129
:1013F0000E94420D81117BCFA7019601C701B60162
:101400000E94420D8823A1F072CF8BED91E00E94E3
:101410002F010F5F1F4F892B21F0F801649161119B
:10142000F4CF6CE371E08BED91E00E940A0278C08A
:1014300081E00E94CC05CE010197F1F7E1E08091B7
:101440008B028111E0E0E195F0E0E858FD4F8489DE
:1014500080680E94CC056CE571E088E792E00E940C
:101460000A0222E0B501A40188E792E00E941F026F
:1014700067E671E088E792E00E940A02E0918B0241
:10148000E23008F050C0E150F0E0E858FD4F8489A8
:1014900080680E94CC056FE371E088E792E00E94CB
:1014A0000A0222E0B701A60188E792E00E941F022B
:1014B00066E471E088E792E00E940A0268E471E065
:1014C0008BED91E00E940A0222E0B501A4018BEDB0
:1014D00091E00E941F0263E571E08BED91E00E94B4
:1014E0000A026FE371E08BED91E00E940A0222E0B4
:1014F000B701A6018BED91E00E941F0267E571E044
:101500008BED91E00E940A026CE371E08BED91E0BB
:101510000E940A0260ED77E080E090E00E940107FF
:101520000E949E019CCEE1E0AFCFEBEDF1E0138293
:10153000128288EE93E0A0E0B0E084839583A683D6
:10154000B78324E031E03183208325EC30E0358718
:10155000248724EC30E03787268720EC30E0318B7D
:10156000208B21EC30E0338B228B22EC30E0358B6A
:10157000248B26EC30E0378B268B118E128E138E47
:10158000148EE8EAF2E01382128284839583A683A4
:10159000B78386E191E091838083A0E9B2E082E0A5
:1015A00015968C9315978BE016968C931697E0ED15
:1015B000F0E0E4911796EC931797ECEBF0E0E491F0
:1015C0001896EC93189740E85EE360E070E01D9693
:1015D0004D935D936D937C935097E8E7F2E013820F
:1015E000128288E291E09183808383E084838FEF8D
:1015F000858384E0868385E0878386E0808787E033
:10160000818788E08287138614861586168617865A
:1016100081E00C945B065058BB27AA270E94230B3D
:101620000C94960C0E94880C38F00E948F0C20F0CD
:1016300039F49F3F19F426F40C94850C0EF4E095D0
:10164000E7FB0C947F0CE92F0E94A70C58F3BA1704
:10165000620773078407950720F079F4A6F50C94C8
:10166000C90C0EF4E0950B2EBA2FA02D0B01B90179
:1016700090010C01CA01A0011124FF27591B99F008
:10168000593F50F4503E68F11A16F040A22F232F14
:10169000342F4427585FF3CF469537952795A79564
:1016A000F0405395C9F77EF41F16BA0B620B730B0B
:1016B000840BBAF09150A1F0FF0FBB1F661F771F7C
:1016C000881FC2F70EC0BA0F621F731F841F48F431
:1016D000879577956795B795F7959E3F08F0B0CFBA
:1016E0009395880F08F09927EE0F979587950895A1
:1016F0000E945B0C08F481E008950E94910B0C9409
:10170000960C0E948F0C58F00E94880C40F029F42F
:101710005F3F29F00C947F0C51110C94CA0C0C946F
:10172000850C0E94A70C68F39923B1F3552391F31C
:10173000951B550BBB27AA2762177307840738F040
:101740009F5F5F4F220F331F441FAA1FA9F335D09D
:101750000E2E3AF0E0E832D091505040E695001C51
:10176000CAF72BD0FE2F29D0660F771F881FBB1F0B
:10177000261737074807AB07B0E809F0BB0B802DE9
:10178000BF01FF2793585F4F3AF09E3F510578F015
:101790000C947F0C0C94CA0C5F3FE4F3983ED4F396
:1017A000869577956795B795F7959F5FC9F7880FE9
:1017B000911D9695879597F90895E1E0660F771F3B
:1017C000881FBB1F621773078407BA0720F0621BCC
:1017D000730B840BBA0BEE1F88F7E09508950E94F7
:1017E000AF0C88F09F5798F0B92F9927B751B0F0F8
:1017F000E1F0660F771F881F991F1AF0BA95C9F795
:1018000014C0B13091F00E94C90CB1E008950C945D
:10181000C90C672F782F8827B85F39F0B93FCCF310
:10182000869577956795B395D9F73EF49095809511
:10183000709561957F4F8F4F9F4F0895E89409C031
:1018400097FB3EF490958095709561957F4F8F4FF3
:101850009F4F9923A9F0F92F96E9BB279395F69509
:10186000879577956795B795F111F8CFFAF4BB0F87
:1018700011F460FF1BC06F5F7F4F8F4F9F4F16C0EB
:10188000882311F096E911C0772321F09EE8872F75
:10189000762F05C0662371F096E8862F70E060E031
:1018A0002AF09A95660F771F881FDAF7880F9695AA
:1018B000879597F90895990F0008550FAA0BE0E84E
:1018C000FEEF16161706E807F907C0F01216130602
:1018D000E407F50798F0621B730B840B950B39F442
:1018E0000A2661F0232B242B252B21F408950A26A8
:1018F00009F4A140A6958FEF811D811D089597F9E8
:101900009F6780E870E060E008959FEF80EC0895A5
:1019100000240A94161617061806090608950024CE
:101920000A9412161306140605060895092E039448
:10193000000C11F4882352F0BB0F40F4BF2B11F4BC
:1019400060FF04C06F5F7F4F8F4F9F4F089557FD1B
:101950009058440F551F59F05F3F71F04795880F1D
:1019600097FB991F61F09F3F79F0879508951216B4
:1019700013061406551FF2CF4695F1DF08C0161660
:1019800017061806991FF1CF869571056105089411
:101990000895E894BB2766277727CB0197F9089528
:1019A0000E945B0C08F48FEF08950E94E80C0C94E1
:1019B000960C0E94880C38F00E948F0C20F0952322
:1019C00011F00C947F0C0C94850C11240C94CA0C0F
:1019D0000E94A70C70F3959FC1F3950F50E0551F1F
:1019E000629FF001729FBB27F00DB11D639FAA2774
:1019F000F00DB11DAA1F649F6627B00DA11D661FC3
:101A0000829F2227B00DA11D621F739FB00DA11DE3
:101A1000621F839FA00D611D221F749F3327A00D9D
:101A2000611D231F849F600D211D822F762F6A2F39
:101A300011249F5750409AF0F1F088234AF0EE0F9E
:101A4000FF1FBB1F661F771F881F91505040A9F7CB
:101A50009E3F510580F00C947F0C0C94CA0C5F3FA4
:101A6000E4F3983ED4F3869577956795B795F79507
:101A7000E7959F5FC1F7FE2B880F911D969587957F
:101A800097F908950E945B0C880B990B0895A1E2C9
:101A90001A2EAA1BBB1BFD010DC0AA1FBB1FEE1FE8
:101AA000FF1FA217B307E407F50720F0A21BB30B33
:101AB000E40BF50B661F771F881F991F1A9469F7AF
:101AC00060957095809590959B01AC01BD01CF010B
:101AD0000895EE0FFF1F0590F491E02D099481E029
:0C1AE00090E0F8940C94740DF894FFCF83
:101AEC00000000002F019C00C6007C01F700D5000F
:101AFC00E90000000000F301E8010502DA01E10150
:101B0C00DE01DB010000000037049C00050204022A
:101B1C006E616E00696E66006F7666000D0A005489
:101B2C00656D703A2000430048756D69646974797D
:101B3C003A200020250900202A43200048756D69B1
:0C1B4C00646974653A2000252020000028
:00000001FF
